{"abi":[{"type":"constructor","inputs":[{"name":"_owner","type":"address","internalType":"address"}],"stateMutability":"nonpayable"},{"type":"function","name":"deposit","inputs":[{"name":"_strategy","type":"address","internalType":"address"},{"name":"_tokens","type":"address[]","internalType":"address[]"},{"name":"_amounts","type":"uint256[]","internalType":"uint256[]"},{"name":"_additionalData","type":"bytes","internalType":"bytes"},{"name":"_for","type":"address","internalType":"address"}],"outputs":[],"stateMutability":"nonpayable"},{"type":"function","name":"getAllStrategies","inputs":[],"outputs":[{"name":"","type":"address[]","internalType":"address[]"}],"stateMutability":"view"},{"type":"function","name":"getStrategy","inputs":[{"name":"_index","type":"uint256","internalType":"uint256"}],"outputs":[{"name":"","type":"address","internalType":"address"}],"stateMutability":"view"},{"type":"function","name":"owner","inputs":[],"outputs":[{"name":"","type":"address","internalType":"address"}],"stateMutability":"view"},{"type":"function","name":"removeStrategy","inputs":[{"name":"_strategy","type":"address","internalType":"address"}],"outputs":[],"stateMutability":"nonpayable"},{"type":"function","name":"renounceOwnership","inputs":[],"outputs":[],"stateMutability":"nonpayable"},{"type":"function","name":"transferOwnership","inputs":[{"name":"newOwner","type":"address","internalType":"address"}],"outputs":[],"stateMutability":"nonpayable"},{"type":"function","name":"whitelistStrategy","inputs":[{"name":"_strategy","type":"address","internalType":"address"}],"outputs":[],"stateMutability":"nonpayable"},{"type":"function","name":"withdraw","inputs":[{"name":"_strategy","type":"address","internalType":"address"},{"name":"_tokens","type":"address[]","internalType":"address[]"},{"name":"_amounts","type":"uint256[]","internalType":"uint256[]"},{"name":"_additionalData","type":"bytes","internalType":"bytes"},{"name":"_to","type":"address","internalType":"address"}],"outputs":[],"stateMutability":"nonpayable"},{"type":"event","name":"DepositedIntoStrategy","inputs":[{"name":"by","type":"address","indexed":false,"internalType":"address"},{"name":"strategy","type":"address","indexed":true,"internalType":"address"},{"name":"tokens","type":"address[]","indexed":true,"internalType":"address[]"},{"name":"amounts","type":"uint256[]","indexed":false,"internalType":"uint256[]"},{"name":"additionalData","type":"bytes","indexed":false,"internalType":"bytes"},{"name":"onBehalfOf","type":"address","indexed":true,"internalType":"address"}],"anonymous":false},{"type":"event","name":"OwnershipTransferred","inputs":[{"name":"previousOwner","type":"address","indexed":true,"internalType":"address"},{"name":"newOwner","type":"address","indexed":true,"internalType":"address"}],"anonymous":false},{"type":"event","name":"RemovedStrategyFromWhitelist","inputs":[{"name":"strategy","type":"address","indexed":true,"internalType":"address"}],"anonymous":false},{"type":"event","name":"WhitelistedStrategy","inputs":[{"name":"strategy","type":"address","indexed":true,"internalType":"address"}],"anonymous":false},{"type":"event","name":"WithdrawnFromStrategy","inputs":[{"name":"by","type":"address","indexed":true,"internalType":"address"},{"name":"strategy","type":"address","indexed":true,"internalType":"address"},{"name":"tokens","type":"address[]","indexed":true,"internalType":"address[]"},{"name":"amounts","type":"uint256[]","indexed":false,"internalType":"uint256[]"},{"name":"additionalData","type":"bytes","indexed":false,"internalType":"bytes"},{"name":"to","type":"address","indexed":false,"internalType":"address"}],"anonymous":false},{"type":"error","name":"OwnableInvalidOwner","inputs":[{"name":"owner","type":"address","internalType":"address"}]},{"type":"error","name":"OwnableUnauthorizedAccount","inputs":[{"name":"account","type":"address","internalType":"address"}]},{"type":"error","name":"SafeERC20FailedOperation","inputs":[{"name":"token","type":"address","internalType":"address"}]},{"type":"error","name":"Utils__AddressZero","inputs":[]},{"type":"error","name":"Utils__LengthsDoNotMatch","inputs":[{"name":"length1","type":"uint256","internalType":"uint256"},{"name":"length2","type":"uint256","internalType":"uint256"}]},{"type":"error","name":"Utils__ValueZero","inputs":[]},{"type":"error","name":"YieldStrategyManager__FailedToDepositIntoStrategy","inputs":[]},{"type":"error","name":"YieldStrategyManager__FailedToWithdrawFromStrategy","inputs":[]},{"type":"error","name":"YieldStrategyManager__NotWhitelistedStrategy","inputs":[{"name":"strategy","type":"address","internalType":"address"}]}],"bytecode":{"object":"0x6080604052348015600e575f5ffd5b50604051610ef0380380610ef0833981016040819052602b9160b4565b806001600160a01b038116605857604051631e4fbdf760e01b81525f600482015260240160405180910390fd5b605f816065565b505060df565b5f80546001600160a01b038381166001600160a01b0319831681178455604051919092169283917f8be0079c531659141344cd1fd0a4f28419497f9722a3daafe3b4186f6b6457e09190a35050565b5f6020828403121560c3575f5ffd5b81516001600160a01b038116811460d8575f5ffd5b9392505050565b610e04806100ec5f395ff3fe608060405234801561000f575f5ffd5b506004361061008f575f3560e01c8063ae77425611610063578063ae774256146100ec578063c3b28864146100ff578063cb983d1d14610114578063cfc0cc3414610127578063f2fde38b1461013a575f5ffd5b8062e1cc2414610093578063175188e8146100a8578063715018a6146100bb5780638da5cb5b146100c3575b5f5ffd5b6100a66100a13660046109e8565b61014d565b005b6100a66100b6366004610ad5565b610286565b6100a66102d9565b5f546001600160a01b03165b6040516001600160a01b0390911681526020015b60405180910390f35b6100a66100fa366004610ad5565b6102ec565b61010761033f565b6040516100e39190610aee565b6100a66101223660046109e8565b610350565b6100cf610135366004610b39565b61046b565b6100a6610148366004610ad5565b61047d565b610156886104bf565b61016086856104f2565b61016981610520565b6101768888888888610547565b6040516316c3d67760e31b81525f906001600160a01b038a169063b61eb3b8906101b0908b908b908b908b908b908b908b90600401610bee565b6020604051808303815f875af11580156101cc573d5f5f3e3d5ffd5b505050506040513d601f19601f820116820180604052508101906101f09190610c46565b90508061021057604051630ff4193160e11b815260040160405180910390fd5b816001600160a01b0316888860405161022a929190610c65565b60405180910390208a6001600160a01b03167fc3e9e2f91817f521b9abace390d4e2720511e49e49400030b57ec82f61467147338a8a8a8a604051610273959493929190610c99565b60405180910390a4505050505050505050565b61028e610609565b610297816104bf565b6102a2600182610635565b506040516001600160a01b038216907f3edeac184d5561f5a78f23e8a17eb12f3052597959f555b2d58084e98365fcd8905f90a250565b6102e1610609565b6102ea5f610650565b565b6102f4610609565b6102fd81610520565b61030860018261069f565b506040516001600160a01b038216907f9391929b22631d0d308719f96fe0a751f080529712d41447fd36d342453728f8905f90a250565b606061034b60016106b3565b905090565b610359886104bf565b61036386856104f2565b61036c81610520565b60405163cb983d1d60e01b81525f906001600160a01b038a169063cb983d1d906103a89033908c908c908c908c908c908c908c90600401610cdc565b6020604051808303815f875af11580156103c4573d5f5f3e3d5ffd5b505050506040513d601f19601f820116820180604052508101906103e89190610c46565b90508061040857604051635085af0760e01b815260040160405180910390fd5b8787604051610418929190610c65565b6040518091039020896001600160a01b0316336001600160a01b03167f90c95a39c4c15f8dc83a4284c187e69d20169eb1b3c7bf812c8471c9e7b165548989898989604051610273959493929190610d46565b5f6104776001836106bf565b92915050565b610485610609565b6001600160a01b0381166104b357604051631e4fbdf760e01b81525f60048201526024015b60405180910390fd5b6104bc81610650565b50565b6104ca6001826106ca565b6104bc576040516302740a5760e11b81526001600160a01b03821660048201526024016104aa565b80821461051c5760405163955ef16760e01b815260048101839052602481018290526044016104aa565b5050565b6001600160a01b0381166104bc576040516311e76e3d60e01b815260040160405180910390fd5b825f5b818110156106005761058186868381811061056757610567610d87565b905060200201602081019061057c9190610ad5565b610520565b6105a284848381811061059657610596610d87565b905060200201356106eb565b6105f833888686858181106105b9576105b9610d87565b905060200201358989868181106105d2576105d2610d87565b90506020020160208101906105e79190610ad5565b6001600160a01b031692919061070b565b60010161054a565b50505050505050565b5f546001600160a01b031633146102ea5760405163118cdaa760e01b81523360048201526024016104aa565b5f610649836001600160a01b03841661076b565b9392505050565b5f80546001600160a01b038381166001600160a01b0319831681178455604051919092169283917f8be0079c531659141344cd1fd0a4f28419497f9722a3daafe3b4186f6b6457e09190a35050565b5f610649836001600160a01b03841661084e565b60605f6106498361089a565b5f61064983836108f3565b6001600160a01b0381165f9081526001830160205260408120541515610649565b805f036104bc576040516379e2a26360e11b815260040160405180910390fd5b604080516001600160a01b0385811660248301528416604482015260648082018490528251808303909101815260849091019091526020810180516001600160e01b03166323b872dd60e01b179052610765908590610919565b50505050565b5f8181526001830160205260408120548015610845575f61078d600183610d9b565b85549091505f906107a090600190610d9b565b90508082146107ff575f865f0182815481106107be576107be610d87565b905f5260205f200154905080875f0184815481106107de576107de610d87565b5f918252602080832090910192909255918252600188019052604090208390555b855486908061081057610810610dba565b600190038181905f5260205f20015f90559055856001015f8681526020019081526020015f205f905560019350505050610477565b5f915050610477565b5f81815260018301602052604081205461089357508154600181810184555f848152602080822090930184905584548482528286019093526040902091909155610477565b505f610477565b6060815f018054806020026020016040519081016040528092919081815260200182805480156108e757602002820191905f5260205f20905b8154815260200190600101908083116108d3575b50505050509050919050565b5f825f01828154811061090857610908610d87565b905f5260205f200154905092915050565b5f5f60205f8451602086015f885af180610938576040513d5f823e3d81fd5b50505f513d9150811561094f57806001141561095c565b6001600160a01b0384163b155b1561076557604051635274afe760e01b81526001600160a01b03851660048201526024016104aa565b80356001600160a01b038116811461099b575f5ffd5b919050565b5f5f83601f8401126109b0575f5ffd5b50813567ffffffffffffffff8111156109c7575f5ffd5b6020830191508360208260051b85010111156109e1575f5ffd5b9250929050565b5f5f5f5f5f5f5f5f60a0898b0312156109ff575f5ffd5b610a0889610985565b9750602089013567ffffffffffffffff811115610a23575f5ffd5b610a2f8b828c016109a0565b909850965050604089013567ffffffffffffffff811115610a4e575f5ffd5b610a5a8b828c016109a0565b909650945050606089013567ffffffffffffffff811115610a79575f5ffd5b8901601f81018b13610a89575f5ffd5b803567ffffffffffffffff811115610a9f575f5ffd5b8b6020828401011115610ab0575f5ffd5b60209190910193509150610ac660808a01610985565b90509295985092959890939650565b5f60208284031215610ae5575f5ffd5b61064982610985565b602080825282518282018190525f918401906040840190835b81811015610b2e5783516001600160a01b0316835260209384019390920191600101610b07565b509095945050505050565b5f60208284031215610b49575f5ffd5b5035919050565b8183526020830192505f815f5b84811015610b8c576001600160a01b03610b7683610985565b1686526020958601959190910190600101610b5d565b5093949350505050565b8183525f6001600160fb1b03831115610bad575f5ffd5b8260051b80836020870137939093016020019392505050565b81835281816020850137505f828201602090810191909152601f909101601f19169091010190565b608081525f610c0160808301898b610b50565b8281036020840152610c1481888a610b96565b90508281036040840152610c29818688610bc6565b91505060018060a01b038316606083015298975050505050505050565b5f60208284031215610c56575f5ffd5b81518015158114610649575f5ffd5b5f8184825b85811015610b2e576001600160a01b03610c8383610985565b1683526020928301929190910190600101610c6a565b6001600160a01b03861681526060602082018190525f90610cbd9083018688610b96565b8281036040840152610cd0818587610bc6565b98975050505050505050565b6001600160a01b038916815260a0602082018190525f90610d00908301898b610b50565b8281036040840152610d1381888a610b96565b90508281036060840152610d28818688610bc6565b91505060018060a01b03831660808301529998505050505050505050565b606081525f610d59606083018789610b96565b8281036020840152610d6c818688610bc6565b91505060018060a01b03831660408301529695505050505050565b634e487b7160e01b5f52603260045260245ffd5b8181038181111561047757634e487b7160e01b5f52601160045260245ffd5b634e487b7160e01b5f52603160045260245ffdfea26469706673582212203aba119378e5c31a9e8180e3df339f123264f487ab4738a1ac5b42c32562a1d464736f6c634300081c0033","linkReferences":{}},"methodIdentifiers":{"deposit(address,address[],uint256[],bytes,address)":"00e1cc24","getAllStrategies()":"c3b28864","getStrategy(uint256)":"cfc0cc34","owner()":"8da5cb5b","removeStrategy(address)":"175188e8","renounceOwnership()":"715018a6","transferOwnership(address)":"f2fde38b","whitelistStrategy(address)":"ae774256","withdraw(address,address[],uint256[],bytes,address)":"cb983d1d"},"id":37}