{"abi":[{"type":"constructor","inputs":[{"name":"_yieldStrategyManager","type":"address","internalType":"address"},{"name":"_morpho","type":"address","internalType":"address"}],"stateMutability":"nonpayable"},{"type":"function","name":"deposit","inputs":[{"name":"_tokens","type":"address[]","internalType":"address[]"},{"name":"_amounts","type":"uint256[]","internalType":"uint256[]"},{"name":"_additionalData","type":"bytes","internalType":"bytes"},{"name":"_for","type":"address","internalType":"address"}],"outputs":[{"name":"","type":"bool","internalType":"bool"}],"stateMutability":"nonpayable"},{"type":"function","name":"getMarketSharesForUser","inputs":[{"name":"_user","type":"address","internalType":"address"},{"name":"_marketId","type":"bytes32","internalType":"Id"}],"outputs":[{"name":"","type":"uint256","internalType":"uint256"}],"stateMutability":"view"},{"type":"function","name":"getMorpho","inputs":[],"outputs":[{"name":"","type":"address","internalType":"address"}],"stateMutability":"view"},{"type":"function","name":"getYieldStrategyManager","inputs":[],"outputs":[{"name":"","type":"address","internalType":"address"}],"stateMutability":"view"},{"type":"function","name":"withdraw","inputs":[{"name":"_by","type":"address","internalType":"address"},{"name":"_tokens","type":"address[]","internalType":"address[]"},{"name":"_amounts","type":"uint256[]","internalType":"uint256[]"},{"name":"_additionalData","type":"bytes","internalType":"bytes"},{"name":"_to","type":"address","internalType":"address"}],"outputs":[{"name":"","type":"bool","internalType":"bool"}],"stateMutability":"nonpayable"},{"type":"event","name":"DepositedIntoMorpho","inputs":[{"name":"by","type":"address","indexed":true,"internalType":"address"},{"name":"marketId","type":"bytes32","indexed":true,"internalType":"Id"},{"name":"sharesReceived","type":"uint256","indexed":true,"internalType":"uint256"}],"anonymous":false},{"type":"event","name":"WithdrawnFromMorpho","inputs":[{"name":"by","type":"address","indexed":false,"internalType":"address"},{"name":"marketId","type":"bytes32","indexed":true,"internalType":"Id"},{"name":"sharesBurned","type":"uint256","indexed":true,"internalType":"uint256"},{"name":"to","type":"address","indexed":true,"internalType":"address"}],"anonymous":false},{"type":"error","name":"MorphoBaseStrategy__NotLoanTokenForMarket","inputs":[]},{"type":"error","name":"MorphoBaseStrategy__NotYieldStrategyManager","inputs":[]}],"bytecode":{"object":"0x60c060405234801561000f575f5ffd5b50604051610cd6380380610cd683398101604081905261002e91610060565b6001600160a01b039182166080521660a052610091565b80516001600160a01b038116811461005b575f5ffd5b919050565b5f5f60408385031215610071575f5ffd5b61007a83610045565b915061008860208401610045565b90509250929050565b60805160a051610c0a6100cc5f395f8181605b015281816101c3015281816103ae015281816104e9015261062201525f60bb0152610c0a5ff3fe608060405234801561000f575f5ffd5b5060043610610055575f3560e01c80631894175014610059578063431d116314610098578063b14410cc146100b9578063b61eb3b8146100df578063cb983d1d14610102575b5f5ffd5b7f00000000000000000000000000000000000000000000000000000000000000005b6040516001600160a01b0390911681526020015b60405180910390f35b6100ab6100a6366004610709565b610115565b60405190815260200161008f565b7f000000000000000000000000000000000000000000000000000000000000000061007b565b6100f26100ed3660046107b9565b61013d565b604051901515815260200161008f565b6100f261011036600461087f565b6102eb565b6001600160a01b0382165f908152602081815260408083208484529091529020545b92915050565b5f61014a888888886104e7565b5f610157848601866109c9565b90505f610163826105e2565b905089895f818110610177576101776109e0565b905060200201602081019061018c91906109f4565b6001600160a01b0316815f01516001600160a01b0316146101c05760405163058ee6d360e21b815260040160405180910390fd5b5f7f00000000000000000000000000000000000000000000000000000000000000006001600160a01b031663a99aad89838b8b5f818110610203576102036109e0565b905060200201355f306040518563ffffffff1660e01b815260040161022b9493929190610a55565b60408051808303815f875af1158015610246573d5f5f3e3d5ffd5b505050506040513d601f19601f8201168201806040525081019061026a9190610a96565b6001600160a01b0387165f90815260208181526040808320888452909152812080549294508493509161029e908490610acc565b9091555050604051819084906001600160a01b038816907fcf359fcca191fc09ad28efa3bd009e3aca3ab42c1e839a4e0a5a90ce3d8c8c12905f90a45060019a9950505050505050505050565b5f80806102fa85870187610adf565b915091505f811161032457865f81518110610317576103176109e0565b6020026020010151610326565b5f5b875f81518110610338576103386109e0565b6020026020010181815250505f61034e836105e2565b905089895f818110610362576103626109e0565b905060200201602081019061037791906109f4565b6001600160a01b0316815f01516001600160a01b0316146103ab5760405163058ee6d360e21b815260040160405180910390fd5b5f7f00000000000000000000000000000000000000000000000000000000000000006001600160a01b0316635c2bea49838b5f815181106103ee576103ee6109e0565b602002602001015186308b6040518663ffffffff1660e01b8152600401610419959493929190610aff565b60408051808303815f875af1158015610434573d5f5f3e3d5ffd5b505050506040513d601f19601f820116820180604052508101906104589190610a96565b6001600160a01b038e165f90815260208181526040808320898452909152812080549294508493509161048c908490610b3b565b90915550506040516001600160a01b038d81168252871690829086907f0ab877b0da326cd497ab979180433d59fcd9ade74433183403d7cca5455a21ae9060200160405180910390a45060019b9a5050505050505050505050565b7f0000000000000000000000000000000000000000000000000000000000000000835f5b818110156105d957868682818110610525576105256109e0565b905060200201602081019061053a91906109f4565b6001600160a01b031663095ea7b38487878581811061055b5761055b6109e0565b6040516001600160e01b031960e087901b1681526001600160a01b03909416600485015260200291909101356024830152506044016020604051808303815f875af11580156105ac573d5f5f3e3d5ffd5b505050506040513d601f19601f820116820180604052508101906105d09190610b4e565b5060010161050b565b50505050505050565b6040805160a0810182525f8082526020820181905281830181905260608201819052608082018190529151632c3c915760e01b81526004810184905290917f00000000000000000000000000000000000000000000000000000000000000009181908190819081906001600160a01b03871690632c3c91579060240160a060405180830381865afa158015610679573d5f5f3e3d5ffd5b505050506040513d601f19601f8201168201806040525081019061069d9190610b6d565b6040805160a0810182526001600160a01b0396871681529486166020860152928516928401929092529092166060820152608081019190915298975050505050505050565b6001600160a01b03811681146106f6575f5ffd5b50565b8035610704816106e2565b919050565b5f5f6040838503121561071a575f5ffd5b8235610725816106e2565b946020939093013593505050565b5f5f83601f840112610743575f5ffd5b50813567ffffffffffffffff81111561075a575f5ffd5b6020830191508360208260051b8501011115610774575f5ffd5b9250929050565b5f5f83601f84011261078b575f5ffd5b50813567ffffffffffffffff8111156107a2575f5ffd5b602083019150836020828501011115610774575f5ffd5b5f5f5f5f5f5f5f6080888a0312156107cf575f5ffd5b873567ffffffffffffffff8111156107e5575f5ffd5b6107f18a828b01610733565b909850965050602088013567ffffffffffffffff811115610810575f5ffd5b61081c8a828b01610733565b909650945050604088013567ffffffffffffffff81111561083b575f5ffd5b6108478a828b0161077b565b909450925050606088013561085b816106e2565b8091505092959891949750929550565b634e487b7160e01b5f52604160045260245ffd5b5f5f5f5f5f5f5f60a0888a031215610895575f5ffd5b87356108a0816106e2565b9650602088013567ffffffffffffffff8111156108bb575f5ffd5b6108c78a828b01610733565b909750955050604088013567ffffffffffffffff8111156108e6575f5ffd5b8801601f81018a136108f6575f5ffd5b803567ffffffffffffffff8111156109105761091061086b565b8060051b604051601f19603f830116810181811067ffffffffffffffff8211171561093d5761093d61086b565b60405291825260208184018101929081018d84111561095a575f5ffd5b6020850194505b8385101561097d57843580825260209586019590935001610961565b509650505050606088013567ffffffffffffffff81111561099c575f5ffd5b6109a88a828b0161077b565b90945092506109bb9050608089016106f9565b905092959891949750929550565b5f602082840312156109d9575f5ffd5b5035919050565b634e487b7160e01b5f52603260045260245ffd5b5f60208284031215610a04575f5ffd5b8135610a0f816106e2565b9392505050565b80516001600160a01b03908116835260208083015182169084015260408083015182169084015260608083015190911690830152608090810151910152565b610a5f8186610a16565b60a081019390935260c08301919091526001600160a01b031660e082015261012061010082018190525f9082015261014001919050565b5f5f60408385031215610aa7575f5ffd5b505080516020909101519092909150565b634e487b7160e01b5f52601160045260245ffd5b8082018082111561013757610137610ab8565b5f5f60408385031215610af0575f5ffd5b50508035926020909101359150565b6101208101610b0e8288610a16565b60a082019590955260c08101939093526001600160a01b0391821660e08401521661010090910152919050565b8181038181111561013757610137610ab8565b5f60208284031215610b5e575f5ffd5b81518015158114610a0f575f5ffd5b5f5f5f5f5f60a08688031215610b81575f5ffd5b8551610b8c816106e2565b6020870151909550610b9d816106e2565b6040870151909450610bae816106e2565b6060870151909350610bbf816106e2565b6080969096015194979396509194939291505056fea26469706673582212207d92a43a1abca2be5b566c6dce3791153a0dca5d61c6be427282134fac8a346d64736f6c634300081c0033","linkReferences":{}},"methodIdentifiers":{"deposit(address[],uint256[],bytes,address)":"b61eb3b8","getMarketSharesForUser(address,bytes32)":"431d1163","getMorpho()":"18941750","getYieldStrategyManager()":"b14410cc","withdraw(address,address[],uint256[],bytes,address)":"cb983d1d"},"id":47}