{"abi":[{"type":"constructor","inputs":[{"name":"_yieldStrategyManager","type":"address","internalType":"address"},{"name":"_pool","type":"address","internalType":"address"}],"stateMutability":"nonpayable"},{"type":"function","name":"deposit","inputs":[{"name":"_tokens","type":"address[]","internalType":"address[]"},{"name":"_amounts","type":"uint256[]","internalType":"uint256[]"},{"name":"_additionalData","type":"bytes","internalType":"bytes"},{"name":"_for","type":"address","internalType":"address"}],"outputs":[{"name":"","type":"bool","internalType":"bool"}],"stateMutability":"nonpayable"},{"type":"function","name":"getATokenBalance","inputs":[{"name":"_user","type":"address","internalType":"address"},{"name":"_asset","type":"address","internalType":"address"}],"outputs":[{"name":"","type":"uint256","internalType":"uint256"}],"stateMutability":"view"},{"type":"function","name":"getPool","inputs":[],"outputs":[{"name":"","type":"address","internalType":"address"}],"stateMutability":"view"},{"type":"function","name":"getYieldStrategyManager","inputs":[],"outputs":[{"name":"","type":"address","internalType":"address"}],"stateMutability":"view"},{"type":"function","name":"withdraw","inputs":[{"name":"_by","type":"address","internalType":"address"},{"name":"_tokens","type":"address[]","internalType":"address[]"},{"name":"_amounts","type":"uint256[]","internalType":"uint256[]"},{"name":"","type":"bytes","internalType":"bytes"},{"name":"_to","type":"address","internalType":"address"}],"outputs":[{"name":"","type":"bool","internalType":"bool"}],"stateMutability":"nonpayable"},{"type":"event","name":"DepositedIntoAave","inputs":[{"name":"user","type":"address","indexed":true,"internalType":"address"},{"name":"token","type":"address","indexed":true,"internalType":"address"},{"name":"aTokensReceived","type":"uint256","indexed":true,"internalType":"uint256"}],"anonymous":false},{"type":"event","name":"WithdrawnFromAave","inputs":[{"name":"by","type":"address","indexed":true,"internalType":"address"},{"name":"token","type":"address","indexed":true,"internalType":"address"},{"name":"amount","type":"uint256","indexed":true,"internalType":"uint256"},{"name":"to","type":"address","indexed":false,"internalType":"address"}],"anonymous":false},{"type":"error","name":"AaveV3BaseStrategy__InsufficientAmountToWitdraw","inputs":[]},{"type":"error","name":"AaveV3BaseStrategy__NotYieldStrategyManager","inputs":[]}],"bytecode":{"object":"0x60c060405234801561000f575f5ffd5b50604051610f20380380610f2083398101604081905261002e91610060565b6001600160a01b039182166080521660a052610091565b80516001600160a01b038116811461005b575f5ffd5b919050565b5f5f60408385031215610071575f5ffd5b61007a83610045565b915061008860208401610045565b90509250929050565b60805160a051610e5b6100c55f395f8181605b0152818161014e015281816104a8015261070001525f60bb0152610e5b5ff3fe608060405234801561000f575f5ffd5b5060043610610055575f3560e01c8063026b1d5f14610059578063203660df14610098578063b14410cc146100b9578063b61eb3b8146100df578063cb983d1d14610102575b5f5ffd5b7f00000000000000000000000000000000000000000000000000000000000000005b6040516001600160a01b0390911681526020015b60405180910390f35b6100ab6100a63660046108f2565b610115565b60405190815260200161008f565b7f000000000000000000000000000000000000000000000000000000000000000061007b565b6100f26100ed3660046109af565b61013f565b604051901515815260200161008f565b6100f2610110366004610a61565b6104a5565b6001600160a01b038083165f90815260208181526040808320938516835292905220545b92915050565b5f61014c888888886106fe565b7f00000000000000000000000000000000000000000000000000000000000000005f6001600160a01b0382166335ea6a758b8b848161018d5761018d610b25565b90506020020160208101906101a29190610b39565b6040516001600160e01b031960e084901b1681526001600160a01b0390911660048201526024016101e060405180830381865afa1580156101e5573d5f5f3e3d5ffd5b505050506040513d601f19601f820116820180604052508101906102099190610c3a565b610100015190505f61021d86880188610d64565b6040516370a0823160e01b81523060048201529091505f906001600160a01b038416906370a0823190602401602060405180830381865afa158015610264573d5f5f3e3d5ffd5b505050506040513d601f19601f820116820180604052508101906102889190610d7f565b9050836001600160a01b031663617ba0378d8d5f8181106102ab576102ab610b25565b90506020020160208101906102c09190610b39565b8c8c5f8181106102d2576102d2610b25565b6040516001600160e01b031960e087901b1681526001600160a01b039094166004850152602002919091013560248301525030604482015261ffff851660648201526084015f604051808303815f87803b15801561032e575f5ffd5b505af1158015610340573d5f5f3e3d5ffd5b50506040516370a0823160e01b81523060048201525f92508391506001600160a01b038616906370a0823190602401602060405180830381865afa15801561038a573d5f5f3e3d5ffd5b505050506040513d601f19601f820116820180604052508101906103ae9190610d7f565b6103b89190610daa565b6001600160a01b0388165f9081526020819052604081209192508291908f8f82816103e5576103e5610b25565b90506020020160208101906103fa9190610b39565b6001600160a01b03166001600160a01b031681526020019081526020015f205f8282546104279190610dbd565b909155508190508d8d5f8161043e5761043e610b25565b90506020020160208101906104539190610b39565b6001600160a01b0316886001600160a01b03167ffa4dec87359ab022f1219136002e0ca06bed39393cbc69334d40e2ab86da578160405160405180910390a45060019c9b505050505050505050505050565b5f7f000000000000000000000000000000000000000000000000000000000000000061050f818a8a85816104db576104db610b25565b90506020020160208101906104f09190610b39565b8c8a8a5f81811061050357610503610b25565b905060200201356107f9565b86865f81811061052157610521610b25565b905060200201355f5f8c6001600160a01b03166001600160a01b031681526020019081526020015f205f8b8b5f81811061055d5761055d610b25565b90506020020160208101906105729190610b39565b6001600160a01b03166001600160a01b031681526020019081526020015f205f82825461059f9190610daa565b90915550506001600160a01b0381166369328dec8a8a5f816105c3576105c3610b25565b90506020020160208101906105d89190610b39565b89895f8181106105ea576105ea610b25565b6040516001600160e01b031960e087901b1681526001600160a01b0394851660048201526020909102929092013560248301525090861660448201526064016020604051808303815f875af1158015610645573d5f5f3e3d5ffd5b505050506040513d601f19601f820116820180604052508101906106699190610d7f565b5086865f81811061067c5761067c610b25565b9050602002013589895f81811061069557610695610b25565b90506020020160208101906106aa9190610b39565b6040516001600160a01b038681168252918216918d16907ff4233c2492c8fe129470230aba79a18b71f74c3b98de673b67a264211d833c699060200160405180910390a45060019998505050505050505050565b7f0000000000000000000000000000000000000000000000000000000000000000835f5b818110156107f05786868281811061073c5761073c610b25565b90506020020160208101906107519190610b39565b6001600160a01b031663095ea7b38487878581811061077257610772610b25565b6040516001600160e01b031960e087901b1681526001600160a01b03909416600485015260200291909101356024830152506044016020604051808303815f875af11580156107c3573d5f5f3e3d5ffd5b505050506040513d601f19601f820116820180604052508101906107e79190610dd0565b50600101610722565b50505050505050565b60405163d15e005360e01b81526001600160a01b0384811660048301525f919086169063d15e005390602401602060405180830381865afa158015610840573d5f5f3e3d5ffd5b505050506040513d601f19601f820116820180604052508101906108649190610d7f565b6001600160a01b038085165f90815260208181526040808320938916835292905290812054919250906b033b2e3c9fd0803ce8000000906108a6908490610def565b6108b09190610e06565b9050808311156108d357604051637125303760e01b815260040160405180910390fd5b505050505050565b6001600160a01b03811681146108ef575f5ffd5b50565b5f5f60408385031215610903575f5ffd5b823561090e816108db565b9150602083013561091e816108db565b809150509250929050565b5f5f83601f840112610939575f5ffd5b50813567ffffffffffffffff811115610950575f5ffd5b6020830191508360208260051b850101111561096a575f5ffd5b9250929050565b5f5f83601f840112610981575f5ffd5b50813567ffffffffffffffff811115610998575f5ffd5b60208301915083602082850101111561096a575f5ffd5b5f5f5f5f5f5f5f6080888a0312156109c5575f5ffd5b873567ffffffffffffffff8111156109db575f5ffd5b6109e78a828b01610929565b909850965050602088013567ffffffffffffffff811115610a06575f5ffd5b610a128a828b01610929565b909650945050604088013567ffffffffffffffff811115610a31575f5ffd5b610a3d8a828b01610971565b9094509250506060880135610a51816108db565b8091505092959891949750929550565b5f5f5f5f5f5f5f5f60a0898b031215610a78575f5ffd5b8835610a83816108db565b9750602089013567ffffffffffffffff811115610a9e575f5ffd5b610aaa8b828c01610929565b909850965050604089013567ffffffffffffffff811115610ac9575f5ffd5b610ad58b828c01610929565b909650945050606089013567ffffffffffffffff811115610af4575f5ffd5b610b008b828c01610971565b9094509250506080890135610b14816108db565b809150509295985092959890939650565b634e487b7160e01b5f52603260045260245ffd5b5f60208284031215610b49575f5ffd5b8135610b54816108db565b9392505050565b6040516101e0810167ffffffffffffffff81118282101715610b8b57634e487b7160e01b5f52604160045260245ffd5b60405290565b5f60208284031215610ba1575f5ffd5b6040516020810167ffffffffffffffff81118282101715610bd057634e487b7160e01b5f52604160045260245ffd5b6040529151825250919050565b80516fffffffffffffffffffffffffffffffff81168114610bfc575f5ffd5b919050565b805164ffffffffff81168114610bfc575f5ffd5b61ffff811681146108ef575f5ffd5b8051610bfc81610c15565b8051610bfc816108db565b5f6101e0828403128015610c4c575f5ffd5b50610c55610b5b565b610c5f8484610b91565b8152610c6d60208401610bdd565b6020820152610c7e60408401610bdd565b6040820152610c8f60608401610bdd565b6060820152610ca060808401610bdd565b6080820152610cb160a08401610bdd565b60a0820152610cc260c08401610c01565b60c0820152610cd360e08401610c24565b60e0820152610ce56101008401610c2f565b610100820152610cf86101208401610c2f565b610120820152610d0b6101408401610c2f565b610140820152610d1e6101608401610c2f565b610160820152610d316101808401610bdd565b610180820152610d446101a08401610bdd565b6101a0820152610d576101c08401610bdd565b6101c08201529392505050565b5f60208284031215610d74575f5ffd5b8135610b5481610c15565b5f60208284031215610d8f575f5ffd5b5051919050565b634e487b7160e01b5f52601160045260245ffd5b8181038181111561013957610139610d96565b8082018082111561013957610139610d96565b5f60208284031215610de0575f5ffd5b81518015158114610b54575f5ffd5b808202811582820484141761013957610139610d96565b5f82610e2057634e487b7160e01b5f52601260045260245ffd5b50049056fea2646970667358221220a62813fe3998f9e40de6b170a1eac6bac8fc33412190451a163143e8c382294264736f6c634300081c0033","linkReferences":{}},"methodIdentifiers":{"deposit(address[],uint256[],bytes,address)":"b61eb3b8","getATokenBalance(address,address)":"203660df","getPool()":"026b1d5f","getYieldStrategyManager()":"b14410cc","withdraw(address,address[],uint256[],bytes,address)":"cb983d1d"},"id":46}