{"abi":[{"type":"constructor","inputs":[{"name":"_yieldStrategyManager","type":"address","internalType":"address"},{"name":"_pool","type":"address","internalType":"address"}],"stateMutability":"nonpayable"},{"type":"function","name":"deposit","inputs":[{"name":"_tokens","type":"address[]","internalType":"address[]"},{"name":"_amounts","type":"uint256[]","internalType":"uint256[]"},{"name":"_additionalData","type":"bytes","internalType":"bytes"},{"name":"_for","type":"address","internalType":"address"}],"outputs":[{"name":"","type":"bool","internalType":"bool"}],"stateMutability":"nonpayable"},{"type":"function","name":"getATokenBalance","inputs":[{"name":"_user","type":"address","internalType":"address"},{"name":"_asset","type":"address","internalType":"address"}],"outputs":[{"name":"","type":"uint256","internalType":"uint256"}],"stateMutability":"view"},{"type":"function","name":"getPool","inputs":[],"outputs":[{"name":"","type":"address","internalType":"address"}],"stateMutability":"view"},{"type":"function","name":"getYieldStrategyManager","inputs":[],"outputs":[{"name":"","type":"address","internalType":"address"}],"stateMutability":"view"},{"type":"function","name":"withdraw","inputs":[{"name":"_by","type":"address","internalType":"address"},{"name":"_tokens","type":"address[]","internalType":"address[]"},{"name":"_amounts","type":"uint256[]","internalType":"uint256[]"},{"name":"","type":"bytes","internalType":"bytes"},{"name":"_to","type":"address","internalType":"address"}],"outputs":[{"name":"","type":"bool","internalType":"bool"}],"stateMutability":"nonpayable"},{"type":"event","name":"DepositedIntoAave","inputs":[{"name":"user","type":"address","indexed":true,"internalType":"address"},{"name":"token","type":"address","indexed":true,"internalType":"address"},{"name":"aTokensReceived","type":"uint256","indexed":true,"internalType":"uint256"}],"anonymous":false},{"type":"event","name":"WithdrawnFromAave","inputs":[{"name":"by","type":"address","indexed":true,"internalType":"address"},{"name":"token","type":"address","indexed":true,"internalType":"address"},{"name":"amount","type":"uint256","indexed":true,"internalType":"uint256"},{"name":"to","type":"address","indexed":false,"internalType":"address"}],"anonymous":false},{"type":"error","name":"AaveV3BaseStrategy__InsufficientAmountToWitdraw","inputs":[]},{"type":"error","name":"AaveV3BaseStrategy__NotYieldStrategyManager","inputs":[]},{"type":"error","name":"Utils__NotEaxctlyOne","inputs":[]}],"bytecode":{"object":"0x60c060405234801561000f575f5ffd5b50604051610f53380380610f5383398101604081905261002e91610060565b6001600160a01b039182166080521660a052610091565b80516001600160a01b038116811461005b575f5ffd5b919050565b5f5f60408385031215610071575f5ffd5b61007a83610045565b915061008860208401610045565b90509250929050565b60805160a051610e8e6100c55f395f8181605b01528181610157015281816104ba015261073601525f60bb0152610e8e5ff3fe608060405234801561000f575f5ffd5b5060043610610055575f3560e01c8063026b1d5f14610059578063203660df14610098578063b14410cc146100b9578063b61eb3b8146100df578063cb983d1d14610102575b5f5ffd5b7f00000000000000000000000000000000000000000000000000000000000000005b6040516001600160a01b0390911681526020015b60405180910390f35b6100ab6100a6366004610925565b610115565b60405190815260200161008f565b7f000000000000000000000000000000000000000000000000000000000000000061007b565b6100f26100ed3660046109e2565b61013f565b604051901515815260200161008f565b6100f2610110366004610a94565b6104ae565b6001600160a01b038083165f90815260208181526040808320938516835292905220545b92915050565b5f61014987610710565b61015588888888610734565b7f00000000000000000000000000000000000000000000000000000000000000005f6001600160a01b0382166335ea6a758b8b848161019657610196610b58565b90506020020160208101906101ab9190610b6c565b6040516001600160e01b031960e084901b1681526001600160a01b0390911660048201526024016101e060405180830381865afa1580156101ee573d5f5f3e3d5ffd5b505050506040513d601f19601f820116820180604052508101906102129190610c6d565b610100015190505f61022686880188610d97565b6040516370a0823160e01b81523060048201529091505f906001600160a01b038416906370a0823190602401602060405180830381865afa15801561026d573d5f5f3e3d5ffd5b505050506040513d601f19601f820116820180604052508101906102919190610db2565b9050836001600160a01b031663617ba0378d8d5f8181106102b4576102b4610b58565b90506020020160208101906102c99190610b6c565b8c8c5f8181106102db576102db610b58565b6040516001600160e01b031960e087901b1681526001600160a01b039094166004850152602002919091013560248301525030604482015261ffff851660648201526084015f604051808303815f87803b158015610337575f5ffd5b505af1158015610349573d5f5f3e3d5ffd5b50506040516370a0823160e01b81523060048201525f92508391506001600160a01b038616906370a0823190602401602060405180830381865afa158015610393573d5f5f3e3d5ffd5b505050506040513d601f19601f820116820180604052508101906103b79190610db2565b6103c19190610ddd565b6001600160a01b0388165f9081526020819052604081209192508291908f8f82816103ee576103ee610b58565b90506020020160208101906104039190610b6c565b6001600160a01b03166001600160a01b031681526020019081526020015f205f8282546104309190610df0565b909155508190508d8d5f8161044757610447610b58565b905060200201602081019061045c9190610b6c565b6001600160a01b0316886001600160a01b03167ffa4dec87359ab022f1219136002e0ca06bed39393cbc69334d40e2ab86da578160405160405180910390a45060019c9b505050505050505050505050565b5f6104b887610710565b7f0000000000000000000000000000000000000000000000000000000000000000610521818a8a5f816104ed576104ed610b58565b90506020020160208101906105029190610b6c565b8c8a8a5f81811061051557610515610b58565b9050602002013561082f565b86865f81811061053357610533610b58565b905060200201355f5f8c6001600160a01b03166001600160a01b031681526020019081526020015f205f8b8b5f81811061056f5761056f610b58565b90506020020160208101906105849190610b6c565b6001600160a01b03166001600160a01b031681526020019081526020015f205f8282546105b19190610ddd565b90915550506001600160a01b0381166369328dec8a8a5f816105d5576105d5610b58565b90506020020160208101906105ea9190610b6c565b89895f8181106105fc576105fc610b58565b6040516001600160e01b031960e087901b1681526001600160a01b0394851660048201526020909102929092013560248301525090861660448201526064016020604051808303815f875af1158015610657573d5f5f3e3d5ffd5b505050506040513d601f19601f8201168201806040525081019061067b9190610db2565b5086865f81811061068e5761068e610b58565b9050602002013589895f8181106106a7576106a7610b58565b90506020020160208101906106bc9190610b6c565b6040516001600160a01b038681168252918216918d16907ff4233c2492c8fe129470230aba79a18b71f74c3b98de673b67a264211d833c699060200160405180910390a45060019998505050505050505050565b80600114610731576040516312232e4d60e11b815260040160405180910390fd5b50565b7f0000000000000000000000000000000000000000000000000000000000000000835f5b818110156108265786868281811061077257610772610b58565b90506020020160208101906107879190610b6c565b6001600160a01b031663095ea7b3848787858181106107a8576107a8610b58565b6040516001600160e01b031960e087901b1681526001600160a01b03909416600485015260200291909101356024830152506044016020604051808303815f875af11580156107f9573d5f5f3e3d5ffd5b505050506040513d601f19601f8201168201806040525081019061081d9190610e03565b50600101610758565b50505050505050565b60405163d15e005360e01b81526001600160a01b0384811660048301525f919086169063d15e005390602401602060405180830381865afa158015610876573d5f5f3e3d5ffd5b505050506040513d601f19601f8201168201806040525081019061089a9190610db2565b6001600160a01b038085165f90815260208181526040808320938916835292905290812054919250906b033b2e3c9fd0803ce8000000906108dc908490610e22565b6108e69190610e39565b90508083111561090957604051637125303760e01b815260040160405180910390fd5b505050505050565b6001600160a01b0381168114610731575f5ffd5b5f5f60408385031215610936575f5ffd5b823561094181610911565b9150602083013561095181610911565b809150509250929050565b5f5f83601f84011261096c575f5ffd5b50813567ffffffffffffffff811115610983575f5ffd5b6020830191508360208260051b850101111561099d575f5ffd5b9250929050565b5f5f83601f8401126109b4575f5ffd5b50813567ffffffffffffffff8111156109cb575f5ffd5b60208301915083602082850101111561099d575f5ffd5b5f5f5f5f5f5f5f6080888a0312156109f8575f5ffd5b873567ffffffffffffffff811115610a0e575f5ffd5b610a1a8a828b0161095c565b909850965050602088013567ffffffffffffffff811115610a39575f5ffd5b610a458a828b0161095c565b909650945050604088013567ffffffffffffffff811115610a64575f5ffd5b610a708a828b016109a4565b9094509250506060880135610a8481610911565b8091505092959891949750929550565b5f5f5f5f5f5f5f5f60a0898b031215610aab575f5ffd5b8835610ab681610911565b9750602089013567ffffffffffffffff811115610ad1575f5ffd5b610add8b828c0161095c565b909850965050604089013567ffffffffffffffff811115610afc575f5ffd5b610b088b828c0161095c565b909650945050606089013567ffffffffffffffff811115610b27575f5ffd5b610b338b828c016109a4565b9094509250506080890135610b4781610911565b809150509295985092959890939650565b634e487b7160e01b5f52603260045260245ffd5b5f60208284031215610b7c575f5ffd5b8135610b8781610911565b9392505050565b6040516101e0810167ffffffffffffffff81118282101715610bbe57634e487b7160e01b5f52604160045260245ffd5b60405290565b5f60208284031215610bd4575f5ffd5b6040516020810167ffffffffffffffff81118282101715610c0357634e487b7160e01b5f52604160045260245ffd5b6040529151825250919050565b80516fffffffffffffffffffffffffffffffff81168114610c2f575f5ffd5b919050565b805164ffffffffff81168114610c2f575f5ffd5b61ffff81168114610731575f5ffd5b8051610c2f81610c48565b8051610c2f81610911565b5f6101e0828403128015610c7f575f5ffd5b50610c88610b8e565b610c928484610bc4565b8152610ca060208401610c10565b6020820152610cb160408401610c10565b6040820152610cc260608401610c10565b6060820152610cd360808401610c10565b6080820152610ce460a08401610c10565b60a0820152610cf560c08401610c34565b60c0820152610d0660e08401610c57565b60e0820152610d186101008401610c62565b610100820152610d2b6101208401610c62565b610120820152610d3e6101408401610c62565b610140820152610d516101608401610c62565b610160820152610d646101808401610c10565b610180820152610d776101a08401610c10565b6101a0820152610d8a6101c08401610c10565b6101c08201529392505050565b5f60208284031215610da7575f5ffd5b8135610b8781610c48565b5f60208284031215610dc2575f5ffd5b5051919050565b634e487b7160e01b5f52601160045260245ffd5b8181038181111561013957610139610dc9565b8082018082111561013957610139610dc9565b5f60208284031215610e13575f5ffd5b81518015158114610b87575f5ffd5b808202811582820484141761013957610139610dc9565b5f82610e5357634e487b7160e01b5f52601260045260245ffd5b50049056fea2646970667358221220663baddd58d575a38ec6a350df82175c13210dc7cee80b692eba83b7dd6c372664736f6c634300081c0033","linkReferences":{}},"methodIdentifiers":{"deposit(address[],uint256[],bytes,address)":"b61eb3b8","getATokenBalance(address,address)":"203660df","getPool()":"026b1d5f","getYieldStrategyManager()":"b14410cc","withdraw(address,address[],uint256[],bytes,address)":"cb983d1d"},"id":46}